:100000000C9446000C945D000C945D000C945D0013
:100010000C945D000C945D000C945D000C945D00EC
:100020000C945D000C945D000C945D000C945D00DC
:100030000C945D000C945D000C945D000C945D00CC
:100040000C945D000C945D000C945D000C945D00BC
:100050000C945D000C945D000C945D000C945D00AC
:100060000C945D000C945D000C945D000C945D009C
:100070000C945D000C945D000C945D000C945D008C
:100080000C945D000C945D000C945D0011241FBE67
:10009000CFEFD0E1DEBFCDBF11E0A0E0B1E0E8E2FC
:1000A000F1E000E00BBF02C007900D92A233B10750
:1000B000D9F70E9468000C9492000C940000FC0197
:1000C0009191911101C008955D9BFECF9CB9F8CF2D
:1000D0001092900087E689B988E18AB986E080931A
:1000E000950080E091E00E945F00B89AC0985F9B05
:1000F000FECF8CB18D30D9F38A30C9F3813631F41B
:100100008EE091E00E945F00C09AF1CF823629F420
:1001100087E191E00E945F00E9CF81E291E00E94D7
:080120005F00E5CFF894FFCF6A
:1001280055415254302052656164790D0A004C459E
:1001380044204F4E0D0A004C4544204F46460D0AB8
:1001480000496E76616C696420496E7075740D0A99
:020158000000A5
:00000001FF
