:100000000C9446000C9450000C9450000C9450003A
:100010000C9450000C9450000C9450000C94500020
:100020000C9450000C9450000C9450000C94500010
:100030000C9450000C9450000C9450000C94500000
:100040000C9450000C9450000C9450000C945000F0
:100050000C9450000C9450000C9450000C945000E0
:100060000C9450000C9450000C9450000C945000D0
:100070000C9450000C9450000C9450000C945000C0
:100080000C9450000C9450000C94500011241FBE8E
:10009000CFEFD0E1DEBFCDBF0E9461000C946300C2
:1000A0000C940000109290008FEC89B9599A549AE0
:1000B000539A5F9BFECF8CB15D9BFECF8CB9F9CF7D
:0A00C00008950E945200F894FFCF4B
:00000001FF
